:100000000EC01DC01CC01BC01AC019C018C017C02C
:1000100016C015C014C013C012C011C010C01124E6
:100020001FBECFE5D2E0DEBFCDBF20E0A0E6B0E04E
:1000300001C01D92A636B207E1F702D04AC0E0CF58
:10004000BA9AB99AB89ABB9883E087B983E886B917
:1000500013B8369A3699FECF84B1282F30E030930A
:1000600063002093620095B1892F90E0982F882734
:100070009093610080936000822B932B9093650096
:1000800080936400863521E0920750F4C098C198AF
:10009000C29A87EA91E60197F1F700C00000D9CF34
:1000A000865591408535914050F4C098C19AC298C8
:1000B00087EA91E60197F1F700C00000CACFC09A25
:1000C000C198C29887EA91E60197F1F700C0000055
:0600D000C0CFF894FFCF41
:00000001FF
