:100000000EC01DC01CC01BC01AC019C018C017C02C
:1000100066C015C014C013C012C011C010C0112496
:100020001FBECFE5D2E0DEBFCDBF20E0A0E6B0E04E
:1000300001C01D92A436B207E1F702D068C0E0CF3C
:1000400081E087B99BEE96B913B8789493E29ABD94
:1000500083BF18BC80916000909161009695879550
:1000600096958795909363008093620080916200DB
:100070009091630088BD87B38A6187BBBA98C29AA2
:1000800080916000909161008F35914058F483E237
:1000900094EF0197F1F700C0000088B38A6088BB35
:1000A000C498D8CF809160009091610080329340D5
:1000B00058F083E294EF0197F1F700C0000088B395
:1000C000826188BBC398C6CF83E294EF0197F1F7B2
:1000D00000C0000088B3886188BBC19ABBCF1F9263
:1000E0000F920FB60F9211242F938F939F9384B189
:1000F00025B190E0922B90936100809360009F91D6
:100100008F912F910F900FBE0F901F901895F8941C
:02011000FFCF1F
:00000001FF
