:100000000C942A000C9434000C9434000C943400AA
:100010000C9434000C9434000C9434000C94340090
:100020000C9434000C9434000C9434000C94340080
:100030000C9434000C9434000C9434000C94340070
:100040000C9434000C9434000C9434000C94340060
:100050000C94340011241FBECFE5D4E0DEBFCDBF29
:100060000E9436000C94C3000C940000D098D198E4
:10007000D298D398D4988F9A8D9ABB9A8C9A1DBC9B
:100080001CBC83EC99E097BD86BD82E88FBD8BE1F7
:100090008EBD85B58D6685BD81E496E941E051E070
:1000A00060E0CC9B22C0413079F4C39A2FEF34E357
:1000B0004CE0215030404040E1F700C00000C398C0
:1000C000CC99FECF462F11C0949A7FEF24E33CE0F9
:1000D000715020403040E1F700C000009498CC9966
:1000E000FECF252F4111262F422F292F30E03BBD77
:1000F0002ABD83BDC89903C0C99915C011C0292F55
:1001000030E03BBD2ABD7FE728E331E0715020405D
:100110003040E1F700C000009150C899F0CFECCF1B
:10012000CA9915C011C0292F30E03BBD2ABD7FE719
:1001300028E331E0715020403040E1F700C000007A
:100140009F5FC999F0CFECCFCB990FC0AACF83BDE9
:100150007FE728E331E0715020403040E1F700C0F4
:1001600000008150CA99F3CFEFCF83BD7FE728E32A
:1001700031E0715020403040E1F700C000008F5F57
:0A018000CB99F3CF8ECFF894FFCF98
:00000001FF
